:100AE800546972653A004261720054656D703A004B
:100AF80053706565643A0025004D6F64653A20417E
:100B080075746F00502055703A00446F776E3A0044
:100B18004C696D69746564004E6F726D616C20007C
:0E0B2800202020003031323334353637383952
:100C0A00014900C102023F0000C1800136000122F1
:100C1A0000014400014100C103C101013B64013DDF
:100C2A0000012700013C00012300013E0001212DA3
:090C3A0001430A014A280142208D
:100E2E00C2A77F677E00EF1F70011EEF4E70F7D2D4
:0E0E3E00A77E007F04EF1F70011EEF4E70F7BD
:010E4C002283
:100E0A00C2A70FBF0000D2A70FBF00000FBF00008C
:100E1A00A2A792047E007F08EF1F70011EEF4E709A
:030E2A00F7A20428
:010E2D0022A2
:100DE400E4FD7C01ECD39408748094805015120EB9
:100DF4000AE433FFC43333335480FEEDC3134EFD92
:050E04000C80E1AF05C8
:010E090022C6
:0209F200A90753
:1009F4007F01EFD39408748094805044E9139204E7
:100A0400E9C313F930041BC2A70BBB00000BBB00E6
:100A140000D2A77A007B08EB1B70011AEB4A70F72F
:100A2400801BC2A77A007B08EB1B70011AEB4A708B
:100A3400F7D2A70BBB00010A0BBB00010A0F80B25F
:010A4400228F
:0D0E8C00120D667FCC1209F27F440209F2BC
:100A9800120D667FCC1209F27FBE1209F2120DE424
:100AA800AB07120DE4EFFEEBFFFDAC06EC120221E2
:100AB800E4FBFA7980783D1201168F0E8E0D8D0CAD
:100AC8008C0BE4FFFE7D207C41AB0EAA0DA90CA87F
:100AD8000B120116E4FBFAF9783F12002502025ABC
:0403CC008F828E830B
:1003D000E4F50BF50CE540453F6077E540240FFF61
:1003E000E4353FFED3E5829FE5839E5013E540242C
:1003F000F1FFE53F34FFFEC3E5829FE5839E505247
:10040000D3E58294DAE5836480947D4040E582946C
:10041000E2E583648094845034AE3FE5407803C3C2
:1004200033CE33CED8F9FDAC06E58225E0FFE58377
:1004300033FEEF2DFFEE3CFE7C007D0A120333E518
:100440004925E02428F8A60608A6078011AE3FAF8C
:100450004022E54925E02428F8A68308A68205491C
:10046000C3E5499407748094804005E4F549D202BD
:100470003002047F078002AF49AA0720000302056B
:0E0480002AEAC3940374809480500302052A74
:10048E00E4FBEBC39A5019EB25E02428F8E6FE08AE
:10049E00E6FFEB25E0240FF8A60608A6070B80E280
:1004AE00E4FBEA14FFEBC39F5061E4F51DC3EA9B26
:1004BE0014FFE51DC39F5050E51D25E02411F8E6FD
:1004CE00FE08E6FFE51D25E0240FF8E6FC08E6FD34
:1004DE00D39FEE6480F8EC64809840288C1E8D1FAC
:1004EE00E51D25E02411F8E6FE08E6FFE51D25E0F2
:1004FE00240FF8A60608A607E51D25E02411F8A688
:10050E001E08A61F051D80A50B8097EAC31325E0C4
:0A051E00240FF8E6F50D08E6F50ECF
:10052800803CE4FBEBC39A5016EB25E02428F8E660
:10053800FE08E6250CF50CEE350BF50B0B80E5EA0D
:10054800D3940074809480400DEAFD7C00AE0BAF1C
:100558000C1203888004AE83AF828E0D8F0ED3E514
:100568000E94DAE50D6480947D4012E50E94E2E580
:100578000D648094845006850D3F850E40AE0DAF06
:010588000E64
:01058900224F
:100DBC00120E2EE4F549C202F53FF540120D667F86
:100DCC00CC1209F27F4E1209F2E4FF1209F2E4FF91
:080DDC001209F27F7F0209F207
:1007F500E4F50AC3E50A9403748094805035120E1B
:100805008C7F207E03120D6D120A988E088F09D3F6
:10081500E50994DAE5086480947D400CE50994E2E5
:10082500E50864809484400B050A7F0A7E00120D5A
:100835006D80C0C3E50A9403748094805046AF0967
:10084500AE081203CCAB07AA06C3EA6480948050B5
:1008550006E4F526F52522D3EB94E7EA6480948334
:10086500501B7C007D0AAF03AE021203888F26AEB3
:1008750002AF037C007D0A1203888D25227526634D
:0A088500752509227526587525080F
:01088F002246
:03001B00020C864E
:100C8600C0E0C0D0758DFC758B660544E544C39500
:100C96003B50028001C39295C3E5449464748094EA
:100CA6008040037544000541C3E54194C8748094AF
:0D0CB600804005754100D203D0D0D0E0325F
:10098D00120E99E5237BFF70367A0A79E87D01FF17
:10099D00120B837BFF7A0A79EE7D017F0C120B839C
:1009AD007BFF7A0A79F27D02E4FF120B83AB3E7D69
:1009BD00027F0C120D937B437D027F0D020D937A06
:1009CD000A79F87D01E4FF120B837BFF7A0A79FF28
:1009DD007D017F0C120B837BFF7A0B79017D02E485
:0509ED00FF120B832244
:10091C00E52475F00A84FFE52475F00A8485F00857
:10092C00EF900B2C93FB7D017F07120D937B2E7D9B
:10093C00017F08120D93E508900B2C93FB7D017F32
:10094C0009120D93E52675F00A84900B2C93FB7D10
:10095C00027F07120D93E52675F00A84E5F0900BE3
:10096C002C93FB7D027F08120D937B2E7D027F0959
:10097C00120D93E525900B2C93FB7D027F0A020D43
:01098C0093D7
:100CFB00120E997BFF7A0B790C7D01E4FF120B83AB
:100D0B007BFF7A0B79127D017F08120B837BFF7AB5
:100D1B000A79F87D02E4FF120B837BFF7A0A79FFD5
:070D2B007D027F09020B832A
:1006900075080A750932750AC9750B7D20902C12F0
:1006A0000D69209026E5277008752701120CFB8044
:1006B000170527D3E527940274809480E44007F55A
:1006C0002712098D8002F53C3090FDD3E527940078
:1006D0007480948040372093347F017E00120D6D2A
:1006E00020932AE4F53CE52724FE600E04701BE508
:1006F0004AC395095014054A8010E542C3954A50F3
:1007000009E542C39509500205423093FDD3E52720
:1007100094007480948040372096347F017E0012CC
:100720000D6D20962AE4F53CE52724FE6015047043
:100730001BE54AD395424014E54AD39508400D1570
:0F0740004A8009E542D39508400215423096FDE4
:01074F002287
:10058A00E5277043E523700302091CE53B75F00A71
:10059A0084900B2C93FB7D017F07120D93E53B752D
:1005AA00F00A84E5F0900B2C93FB7D017F08120D75
:1005BA00937BFF3001067A0B791880047A0B792035
:1005CA007D027F07020B83053CE53B75F00A8490A8
:1005DA000B2C93FB7D027F06120D93E53B75F00A07
:1005EA0084E5F0900B2C93FB7D027F07120D93E5B7
:1005FA003C54017060E54A75F00A84900B2C93FB19
:10060A007D017F05120D937B2E7D017F06120D93CE
:10061A00E54A75F00A84E5F0900B2C93FB7D017F87
:10062A0007120D93E54275F00A84900B2C93FB7D1B
:10063A00017F0D120D937B2E7D017F0E120D93E526
:10064A004275F00A84E5F0900B2C93FB7D017F0F35
:10065A00120D938022E52724FE600F0470197BFF98
:10066A007A0B79287D017F05800A7BFF7A0B79282E
:10067A007D017F0D120B83D3E53C94147480948022
:06068A004003E4F53C22F0
:070D6600120E2E7F057E0036
:100D6D00E58954F04401F589C28CEF1FAC06700182
:100D7D001E4C6011758CFC758A18D28C308DFDC29D
:060D8D008CC28D80E522FE
:100E4D00E589540F4410F589758DFC758B66D2AB11
:050E5D00D2AFD28E228D
:100B3600E524C395424009E524D3954A5002800135
:100B4600C39204300406C2B7D2B68004D2B7C2B686
:100B5600E526C395214003D38001C39205300403E3
:100B6600300503D38001C39201300103C38001D352
:0C0B760092A3300404753B3C22753B1E2A
:010B82002250
:10075000D2B9C2BBD2BC120D327F0A7E00120D6D1F
:100760007BFF7A007903E4FF120BC7120DBC7F32C6
:100770007E00120D6D120E8C7F207E03120D6D1205
:100780000A98120E62120E4D12098DD2A3D2B6D261
:10079000B7753B3C120EA5AE4FAF507C007D2512C5
:1007A0000321EF2432FFE43EFE7D641203338F24E5
:1007B0003003301207F5C203E52664587022E525A0
:1007C0006408701C053DC3E53D940374809480402B
:1007D00012120DBC7F327E00120D6D1207F58000E3
:1007E000E4F53D120B3612069012058A7F147E0046
:0507F000120D6D809F59
:040C4300024F00005C
:100A4500E4FEC2A5D2A6D2A4C2A6D2A40000D2A515
:100A55000000C2A5D2A40000D2A50000C2A5C2A470
:100A65000000D2A50000C2A5FDEDC39408748094D2
:100A750080501BD2A50000C2A5000030A4047F0150
:100A85008002E4FFEE25E0FEEF42060D80DBD2A6F4
:020A9500AF06AA
:010A9700223C
:0E0E6200D2A6C2A5D2A4E4F54FF550020EA50B
:090EA500120A45754F008F50221E
:10000300000E0A0E00000000040A15040404040094
:080013000004040404150A04B2
:100C4800C2928F807F017E00120C59D2947F017E60
:010C5800009B
:100C5900EF1FAC0670011E4C60220000000000006E
:100C6900000000000000000000000000000000007B
:0D0C79000000000000000000000080D422F8
:0E0CC3007E00120CD17F38120E707F017E0071
:100CD1005389F0438901C28CC2A9D3EF9400EE94E9
:100CE100004016758CFC758A66C28DD28C308DFDE4
:0A0CF100C28CEF1F70E41E80E122A8
:0E0E7000C291120C48C2947F017E00020C5900
:0E0E7E00D291120C48C2947F017E00020C59E2
:100D32007F0F7E00120CD17F38120E707F05120CCD
:100D4200C37F38120E707F01120CC37F08120CCAC7
:100D5200120E997F06120CCA7F0C120E707F017E52
:040D620000020CD1AE
:0C0E99007F01120E707F027E00020CD15F
:020D9300AE07A9
:100D9500EDF58275830064017006EE2480FA800CFF
:100DA500E58264024583700EEE24C0FAAF02120E8E
:060DB50070AF03120E7E78
:010DBB002215
:060B83008B0C8A0D890EA7
:100B8900EDFB7A0064017007EF2480F50F800BEB11
:100B990064024A7028EF24C0F50FAF0F120E70AB34
:100BA9000CAA0DA90E1202DB6013050EE50E7002E8
:0D0BB900050D14F91202DBFF120E7E80E222
:010BC600220C
:060BC7008B088A09890A6F
:100BCD00EFD39407748094805032EF33333354F85D
:100BDD004440FF120E70E4FDEDC3940874809480C0
:100BED005015AB08AA09A90A8D827583001202F46B
:0C0BFD00FF120E7E0D80E17F80120E7052
:010C090022C8
:10001E000202C6E86480F8E933E83360110460F048
:10002E00ED33EC337009E8FCE9FDEAFEEBFF220448
:10003E0060DED3EB9FEA9EE99DE8C2E78CF0C2F743
:10004E0095F0400CE8CCF8E9CDF9EACEFAEBCFFB0F
:10005E0012029185D0F05804700320D5B3E80470D5
:10006E00075002B2D50202D092D5EC0460F7E4CC70
:10007E00C0E0C398F8603B94186008400DD0E0FBD8
:10008E000202A8E4FBFAC9FC8028E830E406E4C9C1
:10009E00FBE4CAFCE830E305E4C9CACBFCE854072C
:1000AE006010F8C3E913F9EA13FAEB13FBEC13FC37
:1000BE00D8F130F52FC3E49CFCEF9BFFEE9AFEEDDA
:1000CE0099FDD0E0FBEF4E4D4C701222DB03020285
:1000DE00CDEC2CFCEF33FFEE33FEED33FDED30E7D0
:1000EE00EB0202A8EF2BFFEE3AFEED39FDD0E0FB5E
:1000FE0050130BBB00030202D0ED13FDEE13FEEF07
:08010E0013FFEC13FC0202A830
:10011600EC4D6011E8497017ED33EC3304600DE4E3
:10012600FCFFFEFD22E933E8330470F80202C61232
:10013600029158046009E4CC248150062850090233
:1001460002D02840030202CDC0E0EB4A7044B980D9
:1001560006D0E0FB0202BCEF4E701CBD8008EBFF30
:10016600EAFEE9FD80EBE98DF0A4FEE5F00201FF71
:10017600E9CDF9EAFEEBFFEF89F0A4FCE5F0CE89C4
:10018600F0A42EFFE435F0CD89F0A42DFEE435F081
:100196008067EF4E7005BD80D780C3EF8BF0A4ACAF
:1001A600F0EE8BF0A42CFCE435F0F8EF8AF0A42CEA
:1001B600E5F038FCE433CB8DF0A42CFCE5F03BF8FD
:1001C600EE8AF0A42CFCE5F038F8E433CF89F0A4ED
:1001D6002CFCE5F038CF3400CE89F0A42FFFE5F0F3
:1001E6003EFEE433C98DF0A42EFEE5F039CD8AF04B
:1001F600A42FFFE5F03EFEE43DFD33D0E0FB5007C3
:100206000BBB000F0202D0EC2CFCEF33FFEE33FEEB
:06021600ED33FD0202A819
:10021C0075F020800E75F010800575F0087D007E5D
:10022C00007F003392D530D5031203BEEC3340105F
:10023C00EF33FFEE33FEED33FDEC33FCD5F0ED2266
:0E024C00E5F0247EA2D513CC92E7CDCEFF22A2
:10025A00EDD2E7CD33EC3392D524814006E4FFFE9C
:10026A00FDFC22FCE4CFCECDCC24E0501174FF80FB
:10027A00EDC3CC13CCCD13CDCE13CECF13CF047098
:07028A00F030D5DE0203BED7
:10029100E9D2E7C933E833F892D5EDD2E7CD33ECB3
:0702A10033FC5002B2D5222C
:1002A800EC30E7100FBF000C0EBE00080DBD0004B7
:1002B8000BEB6014A2D5EB13FCED92E7FD2274FF63
:1002C800FCFDFEFF22E480F8A2D574FF13FC7D80BC
:0302D800E480EFD0
:0300000002089063
:0C089000787FE4F6D8FD7581540208D78B
:1002DB00BB010689828A83E0225002E722BBFE0221
:0902EB00E32289828A83E4932254
:1002F400BB010CE58229F582E5833AF583E02250BF
:1003040006E92582F8E622BBFE06E92582F8E22208
:0D031400E58229F582E5833AF583E4932222
:10032100EF8DF0A4A8F0CF8CF0A428CE8DF0A42EF0
:02033100FE22AA
:10033300BC000BBE0029EF8DF084FFADF022E4CCAE
:10034300F875F008EF2FFFEE33FEEC33FCEE9DEC77
:10035300984005FCEE9DFE0FD5F0E9E4CEFD22EDBD
:10036300F8F5F0EE8420D21CFEADF075F008EF2F07
:10037300FFED33FD4007985006D5F0F222C398FDF8
:050383000FD5F0EA2295
:10038800C2D5EC30E709B2D5E4C39DFDE49CFCEE90
:1003980030E715B2D5E4C39FFFE49EFE120333C3D2
:1003A800E49DFDE49CFC800312033330D507C3E4CD
:0603B8009FFFE49EFE22FF
:0E03BE00C3E49FFFE49EFEE49DFDE49CFC2250
:10089C00020750E493A3F8E493A34003F68001F21B
:1008AC0008DFF48029E493A3F85407240CC8C3335D
:1008BC00C4540F4420C8834004F456800146F6DF2C
:1008CC00E4800B0102040810204080900C0AE47EA6
:1008DC00019360BCA3FF543F30E509541FFEE49321
:1008EC00A360010ECF54C025E060A840B8E493A3E8
:1008FC00FAE493A3F8E493A3C8C582C8CAC583CA13
:10090C00F0A3C8C582C8CAC583CADFE9DEE780BECA
:010C470000AC
:00000001FF
