:1008B900546972653A004261720054656D703A007C
:1008C90053706565643A0025004D6F64653A2041AF
:1008D90075746F00502055703A00446F776E3A0076
:1008E9004C696D69746564004E6F726D616C2000AE
:0E08F900202020003031323334353637383984
:100A9600014500C101023B000001320001220001B4
:100AA6004000013D00C102C1000137640139000167
:100AB6002700013800012300013A0001212D013FE2
:070AC6000A014628013E2051
:100C3D00C2A77F677E00EF1F70011EEF4E70F7D2C7
:0E0C4D00A77E007F04EF1F70011EEF4E70F7B0
:010C5B002276
:100C1900C2A70FBF0000D2A70FBF00000FBF00007F
:100C2900A2A792037E007F08EF1F70011EEF4E708E
:030C3900F7A2031C
:010C3C002295
:100BF300E4FD7C01ECD39408748094805015120CAE
:100C030019E433FFC43333335480FEEDC3134EFD75
:050C13000C80E1AF05BB
:010C180022B9
:02081300A90733
:100815007F01EFD39408748094805044E9139203C8
:10082500E9C313F930031BC2A70BBB00000BBB00C8
:1008350000D2A77A007B08EB1B70011AEB4A70F710
:10084500801BC2A77A007B08EB1B70011AEB4A706C
:10085500F7D2A70BBB00010A0BBB00010A0F80B240
:010865002270
:0D0C9B00120B757FCC1208137F4402081362
:10090700120B757FCC1208137FBE120813120BF35C
:10091700AB07120BF3EFFEEBFFFDAC06EC12012960
:10092700E4FBFA7980783D12001E8F188E178D161A
:100937008C15E4FFFE7D207C41AB18AA17A916A8E9
:070947001512001E020162FF
:0403DA008E158F16D7
:1003DE00E4F517F518C3E516953CFFE515953BFEBC
:1003EE00120CB4E53C453B6051D3EF940FEE6480A4
:1003FE00948040057EFF7FFF22D3EF9405EE64804C
:10040E0094804036AE3BAF3C7C007D06120229AC98
:10041E0006AD07AE15E5167802C333CE33CED8F946
:10042E002DFFEC3EFE7C007D0A12023BE54525E0E9
:10043E002428F8A60608A607800CE54525E0242802
:10044E00F8A61508A6160545C3E5459405748094CF
:10045E00804005E4F545D201E4FFEFC3951950162F
:10046E00EF25E02428F8E6FC08E62518F518EC350B
:10047E0017F5170F80E4E519FD7C00D39400748006
:10048E0094804009AE17AF181202908004AE15AFDB
:01049E001647
:01049F00223A
:100BCB00120C3DE4F545C201F53BF53C120B757F6C
:100BDB00CC1208137F4E120813E4FF120813E4FF24
:080BEB001208137F7F020813BA
:10056000E4F514C3E5149403748094805035120CA0
:100570009B7F207E03120B7C1209078E128F13D3F0
:10058000E5139464E51264809480400CE513949024
:10059000E51264809481400B05147F0A7E00120BE3
:1005A0007C80C0C3E5149403748094805057AF13CB
:1005B000AE121203DAAB07AA06BAFF0EBBFF0B7529
:1005C0002663752509E4F53BF53CC3EA6480948015
:1005D0005006E4F526F52522D3EB94E7EA648094EF
:1005E00083501B7C007D0AAF03AE021202908F265F
:1005F000AE02AF037C007D0A1202908D2522752683
:0B060000637525092275265875250832
:01060B0022CC
:03001B00020A597D
:100A5900C0E0C0D0758DFC758B660540E540C39537
:100A69003750028001C39295C3E540946474809421
:100A7900804003754000053DC3E53D94C8748094EA
:0D0A8900804005753D00D202D0D0D0E03293
:1007AE00120CA8E5237BFF70367A0879B97D01FF1C
:1007BE001209947BFF7A0879BF7D017F0C12099490
:1007CE007BFF7A0879C37D02E4FF120994AB3A7D70
:1007DE00027F0C120BA27B437D027F0D020BA27ACD
:1007EE000879C97D01E4FF1209947BFF7A0879D05C
:1007FE007D017F0C1209947BFF7A0879D27D02E489
:05080E00FF1209942215
:10073D00E52475F00A84FFE52475F00A8485F0122E
:10074D00EF9008FD93FB7D017F07120BA27B2E7DA1
:10075D00017F08120BA2E5129008FD93FB7D017F2E
:10076D0009120BA2E52675F00A849008FD93FB7D16
:10077D00027F07120BA2E52675F00A84E5F09008BA
:10078D00FD93FB7D027F08120BA27B2E7D027F095C
:10079D00120BA2E5259008FD93FB7D027F0A020B4B
:0107AD00A2A9
:100B0A00120CA87BFF7A0879DD7D01E4FF120994B3
:100B1A007BFF7A0879E37D017F081209947BFF7ACB
:100B2A000879C97D02E4FF1209947BFF7A0879D01B
:070B3A007D027F090209940E
:1004A00075120A7513327514C975157D20902C12BA
:1004B0000B78209026E5277008752701120B0A801B
:1004C000170527D3E527940274809480E44007F54C
:1004D000271207AE8002F5383090FDD3E52794004F
:1004E0007480948040372093347F017E00120B7C0F
:1004F00020932AE4F538E52724FE600E04701BE5FE
:1005000046C39513501405468010E53EC3954650EA
:1005100009E53EC395135002053E3093FDD3E52710
:1005200094007480948040372096347F017E0012BE
:100530000B7C20962AE4F538E52724FE601504702C
:100540001BE546D3953E4014E546D39512400D1564
:0F055000468009E53ED395124002153E3096FDD8
:01055F002279
:1002D400E5277043E523700302073DE53775F00A0F
:1002E400849008FD93FB7D017F07120BA2E537750F
:1002F400F00A84E5F09008FD93FB7D017F08120B62
:10030400A27BFF3000067A0879E980047A0879F143
:100314007D027F070209940538E53775F00A849059
:1003240008FD93FB7D027F06120BA2E53775F00AE8
:1003340084E5F09008FD93FB7D027F07120BA2E594
:100344003854017060E54675F00A849008FD93FB0B
:100354007D017F05120BA27B2E7D017F06120BA26D
:10036400E54675F00A84E5F09008FD93FB7D017F76
:1003740007120BA2E53E75F00A849008FD93FB7DFD
:10038400017F0D120BA27B2E7D017F0E120BA2E5C5
:100394003E75F00A84E5F09008FD93FB7D017F0F24
:1003A400120BA28022E52724FE600F0470197BFF44
:1003B4007A0879F97D017F05800A7BFF7A0879F94B
:1003C4007D017F0D120994D3E538941474809480D0
:0603D4004003E4F53822AD
:070B7500120C3D7F057E001C
:100B7C00E58954F04401F589C28CEF1FAC06700175
:100B8C001E4C6011758CFC758A18D28C308DFDC290
:060B9C008CC28D80E522F1
:100C5C00E589540F4410F589758DFC758B66D2AB04
:050C6C00D2AFD28E2280
:10094E00E524C3953E4009E524D395465002800127
:10095E00C39203300306C2B7D2B68004D2B7C2B672
:10096E00E526C395214003D38001C39204300303CF
:10097E00300403D38001C39200D2A3300304753731
:05098E003C2275371E3C
:010993002241
:10060C00D2B9C2BBD2BC120B417F0A7E00120B7C4A
:10061C007BFF7A007903E4FF1209D8120BCB7F32EF
:10062C007E00120B7C120C9B7F207E03120B7C1223
:10063C000907120C71120C5C1207AED2A3D2B6D2FF
:10064C00B775373C120CC0AE0CAF0D7C007D25127B
:10065C000229EF2432FFE43EFE7D6412023B8F241C
:10066C00300230120560C202E52664587022E5257E
:10067C006408701C0539C3E5399403748094804078
:10068C0012120BCB7F327E00120B7C1205608000A5
:10069C00E4F53912094E1204A01202D47F147E0024
:0506AC00120B7C809F91
:040ACD00020C000017
:10086600E4FEC2A5D2A6D2A4C2A6D2A40000D2A5F6
:100876000000C2A5D2A40000D2A50000C2A5C2A451
:100886000000D2A50000C2A5FDEDC39408748094B3
:1008960080501BD2A50000C2A5000030A4047F0131
:1008A6008002E4FFEE25E0FEEF42060D80DBD2A6D5
:0208B600AF068B
:0108B800221D
:0E0C7100D2A6C2A5D2A4E4F50CF50D020CC06B
:090CC000120866750C008F0D226C
:10000300000E0A0E00000000040A15040404040094
:080013000004040404150A04B2
:100A1B00C2928F807F017E00120A2CD2947F017EBE
:010A2B0000CA
:100A2C00EF1FAC0670011E4C60220000000000009D
:100A3C0000000000000000000000000000000000AA
:0D0A4C000000000000000000000080D42227
:0E0AD2007E00120AE07F38120C7F7F017E004A
:100AE0005389F0438901C28CC2A9D3EF9400EE94DC
:100AF000004016758CFC758A66C28DD28C308DFDD7
:0A0B0000C28CEF1F70E41E80E1229A
:0E0C7F00C291120A1BC2947F017E00020A2C51
:0E0C8D00D291120A1BC2947F017E00020A2C33
:100B41007F0F7E00120AE07F38120C7F7F05120AA8
:100B5100D27F38120C7F7F01120AD27F08120AD984
:100B6100120CA87F06120AD97F0C120C7F7F017E1E
:040B710000020AE094
:0C0CA8007F01120C7F7F027E00020AE038
:020BA200AE079C
:100BA400EDF58275830064017006EE2480FA800CF2
:100BB400E58264024583700EEE24C0FAAF02120C83
:060BC4007FAF03120C8D4F
:010BCA002208
:060994008B168A1789187A
:10099A00EDFB7A0064017007EF2480F519800BEBF8
:1009AA0064024A7028EF24C0F519AF19120C7FAB04
:1009BA0016AA17A9181201E360130518E5187002A0
:0D09CA00051714F91201E3FF120C8D80E2F5
:0109D70022FD
:0609D8008B128A13891442
:1009DE00EFD39407748094805032EF33333354F84E
:1009EE004440FF120C7FE4FDEDC3940874809480A4
:1009FE005015AB12AA13A9148D827583001201FC37
:0C0A0E00FF120C8D0D80E17F80120C7F28
:010A1A0022B9
:10001E00EC4D6011E8497017ED33EC3304600DE4DC
:10002E00FCFFFEFD22E933E8330470F80201CE1224
:10003E00019958046009E4CC248150062850090225
:10004E0001D82840030201D5C0E0EB4A7044B980C4
:10005E0006D0E0FB0201C4EF4E701CBD8008EBFF22
:10006E00EAFEE9FD80EBE98DF0A4FEE5F002010762
:10007E00E9CDF9EAFEEBFFEF89F0A4FCE5F0CE89BD
:10008E00F0A42EFFE435F0CD89F0A42DFEE435F07A
:10009E008067EF4E7005BD80D780C3EF8BF0A4ACA8
:1000AE00F0EE8BF0A42CFCE435F0F8EF8AF0A42CE3
:1000BE00E5F038FCE433CB8DF0A42CFCE5F03BF8F6
:1000CE00EE8AF0A42CFCE5F038F8E433CF89F0A4E6
:1000DE002CFCE5F038CF3400CE89F0A42FFFE5F0EC
:1000EE003EFEE433C98DF0A42EFEE5F039CD8AF044
:1000FE00A42FFFE5F03EFEE43DFD33D0E0FB5007BC
:10010E000BBB000F0201D8EC2CFCEF33FFEE33FEDD
:06011E00ED33FD0201B00B
:1001240075F020800E75F010800575F0087D007E56
:10013400007F003392D530D5031202C6EC33401051
:10014400EF33FFEE33FEED33FDEC33FCD5F0ED225F
:0E015400E5F0247EA2D513CC92E7CDCEFF229B
:10016200EDD2E7CD33EC3392D524814006E4FFFE95
:10017200FDFC22FCE4CFCECDCC24E0501174FF80F4
:10018200EDC3CC13CCCD13CDCE13CECF13CF047091
:07019200F030D5DE0202C6C9
:10019900E9D2E7C933E833F892D5EDD2E7CD33ECAC
:0701A90033FC5002B2D52225
:1001B000EC30E7100FBF000C0EBE00080DBD0004B0
:1001C0000BEB6014A2D5EB13FCED92E7FD2274FF5C
:1001D000FCFDFEFF22E480F8A2D574FF13FC7D80B5
:0301E000E480EFC9
:030000000206B144
:0C06B100787FE4F6D8FD7581460206F85B
:1001E300BB010689828A83E0225002E722BBFE021A
:0901F300E32289828A83E493224D
:1001FC00BB010CE58229F582E5833AF583E02250B8
:10020C0006E92582F8E622BBFE06E92582F8E22201
:0D021C00E58229F582E5833AF583E493221B
:10022900EF8DF0A4A8F0CF8CF0A428CE8DF0A42EE9
:02023900FE22A3
:10023B00BC000BBE0029EF8DF084FFADF022E4CCA7
:10024B00F875F008EF2FFFEE33FEEC33FCEE9DEC70
:10025B00984005FCEE9DFE0FD5F0E9E4CEFD22EDB6
:10026B00F8F5F0EE8420D21CFEADF075F008EF2F00
:10027B00FFED33FD4007985006D5F0F222C398FDF1
:05028B000FD5F0EA228E
:10029000C2D5EC30E709B2D5E4C39DFDE49CFCEE89
:1002A00030E715B2D5E4C39FFFE49EFE12023BC3C4
:1002B000E49DFDE49CFC800312023B30D507C3E4BF
:0602C0009FFFE49EFE22F8
:0E02C600C3E49FFFE49EFEE49DFDE49CFC2249
:0C0CB400EE30E707C3E49FFFE49EFE2241
:1006BD0002060CE493A3F8E493A34003F68001F241
:1006CD0008DFF48029E493A3F85407240CC8C3333E
:1006DD00C4540F4420C8834004F456800146F6DF0D
:1006ED00E4800B0102040810204080900A96E47EFD
:1006FD00019360BCA3FF543F30E509541FFEE49302
:10070D00A360010ECF54C025E060A840B8E493A3C8
:10071D00FAE493A3F8E493A3C8C582C8CAC583CAF3
:10072D00F0A3C8C582C8CAC583CADFE9DEE780BEAB
:010AD1000024
:00000001FF
