:10087800546972653A004261720054656D703A00BD
:1008880053706565643A0025004D6F64653A2041F0
:1008980075746F004C696D69746564004E6F726D94
:1008A800616C2000503A55703A00543A55703A003D
:1008B800446F776E3A0020202000303132333435CF
:0408C800363738394E
:100ABA00012900012300013600013300C104C103EA
:100ACA00012F640122640128000130000124000181
:100ADA003200013101012A0201212D01350A013BAF
:040AEA00280134208B
:100C9100D3EF9400EE94004016E4FDEDC39402748A
:0F0CA10080948050030D80F3EF1F70E41E80E1FC
:010CB0002221
:0F0D5400D2A10000D2A000000000C2A100002226
:0F0D6300C2A10000D2A000000000D2A100002217
:080C4D00120D547FA0120C707F
:100C5500D2A00000D392A1C3E51D94FA74809480BC
:0A0C65005004051D80EEC2A000003F
:010C6F002262
:100C7000C2A0E4FEEEC39408748094805012EF3357
:100C800092A100D2A00000C2A0EF25E0FF0E80E4F8
:010C90002241
:100D0F00E4FEEEC39408748094805011D2A0EF25B6
:0D0D1F00E0FDA2A1E4334DFFC2A00E80E56F
:010D2C0022A4
:100CD100AC07120C4DAF04120C70120C55AF05127B
:0F0CE1000C70120C55120D637F967E00020C9161
:020B8A00AD07B5
:100B8C00120C4DAF05120C70120C55120D547FA1A6
:100B9C00120C70120C55120D0FAC07120D637F96D0
:070BAC007E00120C91AF0462
:010BB300221F
:100CF000C2A77F677E00EF1F70011EEF4E70F7D214
:0E0D0000A77E007F04EF1F70011EEF4E70F7FC
:010D0E0022C2
:100C2900C2A70FBF0000D2A70FBF00000FBF00006F
:100C3900A2A792017E007F08EF1F70011EEF4E7080
:030C4900F7A2010E
:010C4C002285
:100BDD00E4FD7C01ECD39408748094805015120CC4
:100BED0029E433FFC43333335480FEEDC3134EFD7C
:050BFD000C80E1AF05D2
:010C020022CF
:0208CC00A9077A
:1008CE007F01EFD39408748094805044E913920111
:1008DE00E9C313F930011BC2A70BBB00000BBB0011
:1008EE0000D2A77A007B08EB1B70011AEB4A70F757
:1008FE00801BC2A77A007B08EB1B70011AEB4A70B3
:10090E00F7D2A70BBB00010A0BBB00010A0F80B286
:01091E0022B6
:100CB100C2A77F677E00EF1F70011EEF4E70F7D253
:0F0CC100A77E007F04EF1F70011EEF4E70F7C378
:010CD0002201
:030DC0000208CC5A
:030DC300020BDD43
:100D4200120CB15001227FCC120DC07F44120DC093
:020D5200C322BA
:10056100120CB150057EFF7FFF227FCC120DC07FA0
:10057100BE120DC0120DC3AB07120DC3AD07120C95
:10058100B1EDAD03F50BEDF50CE50B30E73DE50CF9
:10059100150C7002150B630CFF630BFFAC0BAD0C5C
:1005A100EC120232E4FBFA7980783D1201168F10C9
:1005B1008E0F8D0E8C0D12021CE4FBFA792078410E
:1005C100120116E4FBFAF978BF8032AC0BAD0CECEA
:1005D100120232E4FBFA7980783D1201168F108EF7
:1005E1000F8D0E8C0DE4FFFE7D207C41AB10AA0F18
:1005F100A90EA80D120116E4FBFAF9783F120025A5
:0B06010012026B8E118F12AE11AF12AF
:01060C0022CB
:030DC600020CB16B
:10069900E4F50AC3E50A940374809480502A120D84
:1006A90042401AD2A77FEE7E02120C031205618E18
:1006B900088F09E509B4FF10E508B4FF0B050A7FA7
:1006C9000A7E00120C0380CBC3E50A94037480945C
:1006D90080503EC3E508648094805006E4F527F510
:1006E9002622D3E50994E7E50864809483501BAE7C
:1006F90008AF097C007D0A1203998F27AE08AF095C
:100709007C007D0A1203998D2622752763752609B7
:070719002275275875260820
:0107200022B6
:0F0D7200EFD394647480948040027F648F2922B1
:03001B00020A7D59
:100A7D00C0E0C0D0758DFC758B660536E536C39527
:100A8D002F50028001C39295C3E53694647480940F
:100A9D008040037536000533C3E53394C8748094E4
:0D0AAD00804005753300D204D0D0D0E03277
:10081300120DABE5247BFF70367A0879787D01FFF2
:100823001209B87BFF7A08797E7D017F0C1209B823
:100833007BFF7A0879827D02E4FF1209B8AB327D2F
:10084300027F0C120BB47B437D027F0D020BB47A43
:100853000879887D01E4FF1209B87BFF7A08798F54
:100863007D017F0C1209B87BFF7A0879917D02E440
:05087300FF1209B8228C
:1007A200E52575F00A84FFE52575F00A8485F008D1
:1007B200EF9008C293FB7D017F07120BB47B2E7D65
:1007C200017F08120BB4E5089008C293FB7D017FFC
:1007D20009120BB4E52775F00A849008C293FB7DD9
:1007E200027F07120BB4E52775F00A84E5F0900842
:1007F200C293FB7D027F08120BB47B2E7D027F0920
:10080200120BB4E5269008C293FB7D027F0A020B0D
:01081200B431
:100B5F00209027C2B77F327E00120C03D2B77F07D7
:100B6F007E00120C03209012E52470047F01800296
:0B0B7F007F008F241208133090FD222D
:1003DD00E5287043E52470030207A2E52F75F00AA6
:1003ED00849008C293FB7D017F07120BB4E52F7536
:1003FD00F00A84E5F09008C293FB7D017F08120B93
:10040D00B47BFF3003067A08799C80047A0879A4BE
:10041D007D027F0702055D05307BFF7A0879AC7D93
:10042D0001E4FF1209B87BFF7A0879B27D02E4FF7F
:10043D001209B87BFF7A0879B87D017F081209B8D7
:10044D007BFF7A0879B87D027F081209B8E5305430
:10045D0001600302051FE53B75F00A849008C29305
:10046D00FB7D017F05120BB47B2E7D017F06120BE8
:10047D00B4E53B75F00A84E5F09008C293FB7D016D
:10048D007F07120BB4E53475F00A849008C293FB14
:10049D007D017F0D120BB47B2E7D017F0E120BB4EF
:1004AD00E53475F00A84E5F09008C293FB7D017F79
:1004BD000F120BB4E52175F00A849008C293FB7DF1
:1004CD00027F05120BB4E52175F00A84E5F0900862
:1004DD00C293FB7D027F06120BB4E4FB7D027F0706
:1004ED00120BB4E53575F00A849008C293FB7D02BA
:1004FD007F0D120BB4E53575F00A84E5F09008C256
:10050D0093FB7D027F0E120BB4E4FB7D027F0F0285
:10051D000BB4E52824FE601614601F146028240314
:10052D0070317BFF7A0879BE7D017F0580227BFFCC
:10053D007A0879BE7D017F0D80167BFF7A0879BE22
:10054D007D027F05800A7BFF7A0879BE7D027F0DD3
:04055D001209B822A5
:100C0300E58954F04401F589C28CEF1FAC067001ED
:100C13001E4C6011758CFC758A18D28C308DFDC208
:060C23008CC28D80E52269
:100D2D00E589540F4410F589758DFC758B66D2AB32
:050D3D00D2AFD28E22AE
:10097200E525C395344009E525D3953B5002800116
:10098200C39201300106C2B7D2B68004D2B7C2B652
:10099200E527C395214003D38001C39202300103AE
:1009A200300203D38001C39203D2A3300104752F16
:0509B2003C22752F1E20
:0109B700221D
:10072100D2B9C2BBD2BC120B2B7F0A7E00120C03C2
:100731007BFF7A007903E4FF1209FC7BFF7A0079E1
:100741000B7F011209FC7BFF7A0079137F021209EA
:10075100FC120CB19200120D81120D2D120813D250
:10076100A3D2B6D2B7752264752F3C120DB7AE175E
:10077100AF187C007D25120332EF2432FFE43EFEE8
:100781007D641203448F25300405120699C20412B8
:100791000972120B5F1203DD7F147E00120C0380BD
:0107A100CA8D
:040AEE0002170000EB
:10091F00E4FEC2A5D2A6D2A4C2A6D2A40000D2A53C
:10092F000000C2A5D2A40000D2A50000C2A5C2A497
:10093F000000D2A50000C2A5FDEDC39408748094F9
:10094F0080501BD2A50000C2A5000030A4047F0177
:10095F008002E4FFEE25E0FEEF42060D80DBD2A61B
:02096F00AF06D1
:010971002263
:0E0D8100D2A6C2A5D2A4E4F517F518020DB74C
:090DB70012091F7517008F1822A4
:10000300000E0A0E00000000040A15040404040094
:080013000004040404150A04B2
:100A3F00C2928F807F017E00120A50D2947F017E76
:010A4F0000A6
:100A5000EF1FAC0670011E4C602200000000000079
:100A60000000000000000000000000000000000086
:0D0A70000000000000000000000080D42203
:0E0AF3007E00120B017F38120D8F7F017E00F6
:100B01005389F0438901C28CC2A9D3EF9400EE94BA
:100B1100004016758CFC758A66C28DD28C308DFDB5
:0A0B2100C28CEF1F70E41E80E12279
:0E0D8F00C291120A3FC2947F017E00020A50F8
:0E0D9D00D291120A3FC2947F017E00020A50DA
:100B2B007F0F7E00120B017F38120D8F7F05120A8B
:100B3B00F37F38120D8F7F01120AF37F08120AFA26
:100B4B00120DAB7F06120AFA7F0C120D8F7F017EFE
:040B5B0000020B0188
:0C0DAB007F01120D8F7F027E00020B0101
:020BB400AE078A
:100BB600EDF58275830064017006EE2480FA800CE0
:100BC600E58264024583700EEE24C0FAAF02120D70
:060BD6008FAF03120D9D1C
:010BDC0022F6
:0609B8008B088A09890A80
:1009BE00EDFB7A0064017007EF2480F50B800BEBE2
:1009CE0064024A7028EF24C0F50BAF0B120D8FABEB
:1009DE0008AA09A90A1202EC6013050AE50A7002B8
:0D09EE00050914F91202ECFF120D9D80E2C4
:0109FB0022D9
:0609FC008B088A09890A3C
:100A0200EFD39407748094805032EF33333354F829
:100A12004440FF120D8FE4FDEDC39408748094806E
:100A22005015AB08AA09A90A8D8275830012030525
:0C0A3200FF120D9D0D80E17F80120D8FE2
:010A3E002295
:10001E000202D7E86480F8E933E83360110460F037
:10002E00ED33EC337009E8FCE9FDEAFEEBFF220448
:10003E0060DED3EB9FEA9EE99DE8C2E78CF0C2F743
:10004E0095F0400CE8CCF8E9CDF9EACEFAEBCFFB0F
:10005E001202A285D0F05804700320D5B3E80470C4
:10006E00075002B2D50202E192D5EC0460F7E4CC5F
:10007E00C0E0C398F8603B94186008400DD0E0FBD8
:10008E000202B9E4FBFAC9FC8028E830E406E4C9B0
:10009E00FBE4CAFCE830E305E4C9CACBFCE854072C
:1000AE006010F8C3E913F9EA13FAEB13FBEC13FC37
:1000BE00D8F130F52FC3E49CFCEF9BFFEE9AFEEDDA
:1000CE0099FDD0E0FBEF4E4D4C701222DB03020285
:1000DE00DEEC2CFCEF33FFEE33FEED33FDED30E7BF
:1000EE00EB0202B9EF2BFFEE3AFEED39FDD0E0FB4D
:1000FE0050130BBB00030202E1ED13FDEE13FEEFF6
:08010E0013FFEC13FC0202B91F
:10011600EC4D6011E8497017ED33EC3304600DE4E3
:10012600FCFFFEFD22E933E8330470F80202D71221
:1001360002A258046009E4CC248150062850090222
:1001460002E12840030202DEC0E0EB4A7044B980B7
:1001560006D0E0FB0202CDEF4E701CBD8008EBFF1F
:10016600EAFEE9FD80EBE98DF0A4FEE5F00201FF71
:10017600E9CDF9EAFEEBFFEF89F0A4FCE5F0CE89C4
:10018600F0A42EFFE435F0CD89F0A42DFEE435F081
:100196008067EF4E7005BD80D780C3EF8BF0A4ACAF
:1001A600F0EE8BF0A42CFCE435F0F8EF8AF0A42CEA
:1001B600E5F038FCE433CB8DF0A42CFCE5F03BF8FD
:1001C600EE8AF0A42CFCE5F038F8E433CF89F0A4ED
:1001D6002CFCE5F038CF3400CE89F0A42FFFE5F0F3
:1001E6003EFEE433C98DF0A42EFEE5F039CD8AF04B
:1001F600A42FFFE5F03EFEE43DFD33D0E0FB5007C3
:100206000BBB000F0202E1EC2CFCEF33FFEE33FEDA
:06021600ED33FD0202B908
:10021C00ED33EC33600A047003BD8004ECB2E7FCF0
:01022C0022AF
:10022D0075F020800E75F010800575F0087D007E4C
:10023D00007F003392D530D5031203CFEC3340103D
:10024D00EF33FFEE33FEED33FDEC33FCD5F0ED2255
:0E025D00E5F0247EA2D513CC92E7CDCEFF2291
:10026B00EDD2E7CD33EC3392D524814006E4FFFE8B
:10027B00FDFC22FCE4CFCECDCC24E0501174FF80EA
:10028B00EDC3CC13CCCD13CDCE13CECF13CF047087
:07029B00F030D5DE0203CFB5
:1002A200E9D2E7C933E833F892D5EDD2E7CD33ECA2
:0702B20033FC5002B2D5221B
:1002B900EC30E7100FBF000C0EBE00080DBD0004A6
:1002C9000BEB6014A2D5EB13FCED92E7FD2274FF52
:1002D900FCFDFEFF22E480F8A2D574FF13FC7D80AB
:0302E900E480EFBF
:0300000002060DE8
:0C060D00787FE4F6D8FD75813B020654AE
:1002EC00BB010689828A83E0225002E722BBFE0210
:0902FC00E32289828A83E4932243
:10030500BB010CE58229F582E5833AF583E02250AD
:1003150006E92582F8E622BBFE06E92582F8E222F7
:0D032500E58229F582E5833AF583E4932211
:10033200EF8DF0A4A8F0CF8CF0A428CE8DF0A42EDF
:02034200FE2299
:10034400BC000BBE0029EF8DF084FFADF022E4CC9D
:10035400F875F008EF2FFFEE33FEEC33FCEE9DEC66
:10036400984005FCEE9DFE0FD5F0E9E4CEFD22EDAC
:10037400F8F5F0EE8420D21CFEADF075F008EF2FF6
:10038400FFED33FD4007985006D5F0F222C398FDE7
:050394000FD5F0EA2284
:10039900C2D5EC30E709B2D5E4C39DFDE49CFCEE7F
:1003A90030E715B2D5E4C39FFFE49EFE120344C3B0
:1003B900E49DFDE49CFC800312034430D507C3E4AB
:0603C9009FFFE49EFE22EE
:0E03CF00C3E49FFFE49EFEE49DFDE49CFC223F
:10061900020721E493A3F8E493A34003F68001F2CF
:1006290008DFF48029E493A3F85407240CC8C333E2
:10063900C4540F4420C8834004F456800146F6DFB1
:10064900E4800B0102040810204080900ABAE47E7D
:10065900019360BCA3FF543F30E509541FFEE493A6
:10066900A360010ECF54C025E060A840B8E493A36D
:10067900FAE493A3F8E493A3C8C582C8CAC583CA98
:10068900F0A3C8C582C8CAC583CADFE9DEE780BE50
:010AF2000003
:00000001FF
